:0100000007F8
:0100010007F7
:0100020007F6
:0100030001FB
:0100040000FB
:0100050000FA
:0100060000F9
:0100070000F8
:0100080000F7
:0100090000F6
:01000A0000F5
:01000B0000F4
:01000C0001F2
:01000D0000F2
:01000E0000F1
:01000F0000F0
:0100100002ED
:0100110003EB
:0100120001EC
:0100130000EC
:0100140001EA
:0100150000EA
:0100160000E9
:0100170000E8
:0100180001E6
:0100190001E5
:01001A0001E4
:01001B0000E4
:01001C0001E2
:01001D0000E2
:01001E0000E1
:01001F0000E0
:0100200004DB
:0100210005D9
:0100220004D9
:0100230000DC
:0100240001DA
:0100250000DA
:0100260000D9
:0100270000D8
:0100280006D1
:0100290006D0
:01002A0006CF
:01002B0000D4
:01002C0001D2
:01002D0000D2
:01002E0000D1
:01002F0000D0
:0100300007C8
:0100310007C7
:0100320007C6
:0100330001CB
:0100340000CB
:0100350000CA
:0100360000C9
:0100370000C8
:0100380007C0
:0100390007BF
:01003A0007BE
:01003B0001C3
:01003C0000C3
:01003D0000C2
:01003E0000C1
:01003F0000C0
:0100400007B8
:0100410007B7
:0100420007B6
:0100430001BB
:0100440000BB
:0100450000BA
:0100460000B9
:0100470000B8
:0100480007B0
:0100490007AF
:01004A0007AE
:01004B0001B3
:01004C0000B3
:01004D0000B2
:01004E0000B1
:01004F0000B0
:0100500008A7
:0100510008A6
:0100520008A5
:0100530000AC
:0100540001AA
:0100550000AA
:0100560000A9
:0100570000A8
:01005800089F
:01005900089E
:01005A00089D
:01005B0000A4
:01005C0001A2
:01005D0000A2
:01005E0000A1
:01005F0000A0
:010060000897
:010061000896
:010062000895
:01006300009C
:01006400019A
:01006500009A
:010066000099
:010067000098
:01006800088F
:01006900088E
:01006A00088D
:01006B000094
:01006C000192
:01006D000092
:01006E000091
:01006F000090
:010070000887
:010071000886
:010072000885
:01007300008C
:01007400018A
:01007500008A
:010076000089
:010077000088
:01007800087F
:01007900087E
:01007A00087D
:01007B000084
:01007C000083
:01007D000082
:01007E000081
:01007F000080
:00000001FF
