:0800000082C7A419C18C18414C
:08000100802700000000000050
:080002008162A01881000000DA
:08000300801500000000000060
:0800040082C79617E10000001D
:0800050080270000000000004C
:0800060084657A192100000055
:080007008AE800092100000055
:0800080080D0000000000000A0
:0800090082C7A419C18C184143
:08000A00802700000000000047
:08000B008162A01881000000D1
:08000C00801500000000000057
:08000D0082C79617E100000014
:08000E00802700000000000043
:08000F008F4D9C18C184100004
:0800100080D000000000000098
:0800110082C78C5000000000C2
:0800120080270000000000003F
:0800130081628860000000001A
:0800140080150000000000004F
:0800150082C77E6000000000BC
:0800160080270000000000003B
:080017008F4D7A60000000002B
:0800180080D000000000000090
:0800190082C78C8788000000FB
:08001A00802700000000000037
:08001B008162889000000000E2
:08001C00801500000000000047
:08001D0082C77E900000000084
:08001E00802700000000000033
:08001F00846584A000000000CC
:080020008AE884A70A00000031
:08002100803800070A0000000E
:080022008098000000000000BE
:0800230082C78CC6AC58C00076
:0800240080270006AC58C00063
:08002500816288C6AC58C000DE
:0800260080150006AC58C00073
:0800270082C77EC6AC58C00080
:0800280080270006AC58C0005F
:080029008EEF7AC6AC58C0004E
:08002A00805E7AC000000000B6
:08002B0080D00000000000007D
:08002C0082C78CC5CC54C4EC62
:08002D0080270005CC54C4EC4F
:08002E00816288C5CC54C4ECCA
:08002F0080150005CC54C4EC5F
:0800300082C77EC5CC54C4EC6C
:0800310080270005CC54C4EC4B
:0800320083CD84C5CC54C4EC5D
:08003300809884C00000000069
:080034008AE884C74C4AC000B1
:08003500803800074C4AC000AE
:080036008098000000000000AA
:0800370082C78CC78158170134
:080038008027000000581701A9
:08003900816288C00058170124
:08003A008015000000581701B9
:08003B0082C77EC000581701C6
:08003C008027000000581701A5
:08003D0083CD7AC000581701C1
:08003E00805E7AC0000007019A
:08003F00803A000000000701F7
:0800400088577EC58C00070102
:08004100807300058C0007012B
:08004200825678C58C0007010D
:08004300807178C00000070184
:08004400802600000000070106
:08004500800100000000000032
:0800460082C78CC84C7AC4E4A7
:0800470080270000000000000A
:08004800816288C00000000085
:0800490080150000000000001A
:08004A0082C77EC00000000027
:08004B00802700000000000006
:08004C00842B84C000000000B9
:08004D00803A000000000000F1
:08004E00859070C6AC62C00091
:08004F00804C000000000000DD
:08005000859070C62C00000031
:08005100804C000000000000DB
:0800520082C78CC78158190117
:0800530080270000005819018C
:08005400816288C00058190107
:0800550080150000005819019C
:0800560082C77EC000581901A9
:08005700802700000058190188
:0800580083CD7AC000581901A4
:08005900805E7AC0000009017D
:08005A00803A000000000901DA
:08005B0085907EC58C000901AF
:08005C00804C7EC00000090188
:08005D00827B7EC6A4000901AC
:08005E0080730006A4000901F3
:08005F0082A282C6A40009017F
:08006000802582C000000901A7
:080061008026000000000901E7
:08006200800100000000000015
:0800630082EB7456C5665922B8
:0800640080020006C566592266
:08006500816182C6C5665922C3
:0800660080160006C566592250
:0800670082C67AC6C566592263
:0800680080280006C56659223C
:0800690083CE74C6C56659225E
:08006A00805C74C00000092253
:08006B00803B000000000922A7
:08006C0080010000000000000B
:08006D00859070C6AC62C4ACC2
:08006E00804C000000000000BE
:08006F00859062C00000000052
:08007000804B000000000000BD
:08007100800100078C00000073
:0800720082C558178190188126
:0800730080285810009018814C
:08007400816158100090188C06
:080075008016581000901000E5
:0800760082C65817EC9010003F
:080077008028581000901000D1
:0800780083CE5817AC90100074
:08007900805C0007AC90100050
:08007A00803B00000090100023
:08007B0080017EC0009010001E
:08007C0085907EC58C901000F8
:08007D00804C7EC000901000D1
:08007E0082797EC6A5901826C8
:08007F0080740006A59018260C
:0800800082A30006A500082C74
:08008100802300000000082CA0
:080082008028000000000000CE
:08008300800174C000000000C0
:0800840082E97456C566596655
:0800850080020006C566596601
:08008600816182C6C56659665E
:0800870080160006C5665966EB
:0800880081797AC6C56659664C
:0800890080017AC6C566500033
:08008A00814D7AC6C5665826B7
:08008B0080270006C566582617
:08008C0083D074C6C566582636
:08008D00805A74C0000008262F
:08008E00803D0000000008267F
:08008F008001000000000000E8
:08009000859070C6AC62C4AC9F
:08009100804C0000000000009B
:08009200859062C0000000002F
:0800930080490000000000009C
:0800940080038CC00000000095
:0800950082C48CC46CA4196143
:08009600802700046CA419612D
:08009700816188C46CA41961A9
:08009800801600046CA419613C
:0800990082C77EC46CA419614A
:08009A00802700046CA4196129
:08009B0083D07AC46CA4196142
:08009C00805A7AC000A419612A
:08009D00803D000000A4196180
:08009E008001000000000000D9
:08009F0085DB46C9C692600032
:0800A000800146C000000000D1
:0800A100854446CA469267A699
:0800A2008095000A469267A652
:0800A30080028CCA469267A698
:0800A40080018CC00000000087
:0800A50082C48CC585A89909ED
:0800A6008027000585A89909D7
:0800A700816188C585A8990953
:0800A8008016000585A89909E6
:0800A90081797EC585A8990943
:0800AA0080017EC58500000005
:0800AB00814D7EC585A09889F6
:0800AC008027000585A098895A
:0800AD0083D084C585A0988969
:0800AE00805A84C000A098896B
:0800AF00803B000000A09889CD
:0800B00080027EC000A09889C7
:0800B10080017EC00000000088
:0800B200858C7E696666400042
:0800B300804D00096666400063
:0800B40080027AC96666400073
:0800B50080017AC000664000E2
:0800B600858C7A4924664000A4
:0800B700804F0009246640009F
:0800B8008001000000000000BF
:0800B90084655C24E27E2961EC
:0800BA0082ED5C24E27E696620
:0800BB0080015C24E20000005A
:0800BC0083CD5C24E29267A6EB
:0800BD0080970000009267A685
:0800BE008001000000000000B9
:0800BF0082ED5C54E57A29662C
:0800C00088335C54E57A20004E
:0800C10080970000007A200086
:0800C2008001000000000000B5
:0800C30082ED5C54E5742A464D
:0800C40080015C54E57420008A
:0800C50081765C54E5742A0603
:0800C60080015C54E574200088
:0800C70082ED5C54E57429662A
:0800C80080015C54E574200086
:0800C90083CD5C54E57429C6E7
:0800CA0080970000007429C6B4
:0800CB008001000000000000AC
:0800CC008B207024E578266109
:0800CD00809500000078266117
:0800CE008002A459C5782661E7
:0800CF008001A459C5000000E6
:0800D00082C4A499C56220005E
:0800D1008027000000622000FE
:0800D2008003A05885622000A4
:0800D300815EA0988562200007
:0800D40080160000006220000C
:0800D50080039657E56220004C
:0800D60082C49697E562200048
:0800D7008027000000622000F8
:0800D80080039257A56220008D
:0800D90081779297A5622000D7
:0800DA0081769297A56227E5EB
:0800DB0080E09290006227E52D
:0800DC00805A9290000007E534
:0800DD00803D0000000007E572
:0800DE00800100000000000099
:0800DF0085904E566684500026
:0800E000804C0006668450000C
:0800E10082ED6C66668450009C
:0800E20080016C6000845000F5
:0800E30081766C68C5845000B1
:0800E400812C6C68C5000000CE
:0800E50080490008C50000007D
:0800E600800284C8CC00000078
:0800E700800184C0000000004C
:0800E80082C484C74C6264E28B
:0800E900802700074C6264E26D
:0800EA00816188C74C6264E2E9
:0800EB00801600074C6264E27C
:0800EC0082C77EC74C6264E28A
:0800ED00802700074C6264E269
:0800EE0083D084C74C6264E278
:0800EF00805A84C000000000EB
:0800F000803B0000000000004D
:0800F10080038CC00000000038
:0800F20082C48C574C6664E2E5
:0800F30082CC00074C6664E2B8
:0800F400804C00000000000038
:0800F50082EE6CC00000000067
:0800F60082A26C600000000012
:0800F700804900000000000038
:0800F80080028CC84C000000DE
:0800F900800100084C0000002A
:0800FA0082C46268415C24E24B
:0800FB0080276260005C24E232
:0800FC00816162688C5C24E262
:0800FD0080166260005C24E241
:0800FE0082C76267EC5C24E29A
:0800FF0080276260005C24E22E
:0801000083D06267AC5C24E2CD
:08010100805A0007AC00000069
:08010200803E00000000000037
:0801030085906CC4E2666A44B9
:08010400804B000000666A4414
:08010500800100000000000071
:0801060082EE74C6C6AE400093
:0801070082A274C6C6AE48C412
:0801080080490006C6AE48C4A0
:08010900800284C6C6AE48CC9A
:08010A00800184C00000000028
:08010B0082C484C6264E2A04BA
:08010C0080270006264E2A049C
:08010D00800388C6264E2A0477
:08010E00815E88C6264E2A0915
:08010F0080160006264E2A09A5
:0801100080027EC6264E2A097A
:0801110080017EC6264E20008D
:0801120082C47EC6264E296955
:0801130080270006264E296931
:08011400800284C6264E296911
:08011500800184C6264E200083
:08011600817784C6264E29C939
:0801170082568446264E29C9D8
:08011800805A8440000009C96F
:08011900803D0000000009C94F
:08011A0080010000000000005C
:08011B00859074C6CC4EC96446
:08011C00804C000000000964A2
:08011D00817674C9247A49645B
:08011E00841A74C9247A400020
:08011F0080490009247A400028
:0801200080038C99247A400051
:0801210082C48C99247A45E3A5
:0801220080270009247A45E35F
:0801230081618899247A45E30B
:0801240080160009247A45E36E
:0801250081797E99247A45E3FB
:08012600814E7E90000005E30C
:0801270080270000000005E341
:0801280081797A90000005E3E3
:0801290082B17A900000000091
:08012A00803E0000000000000F
:08012B0085906C96695E97E671
:08012C00804B0000000007E613
:08012D00800100000000000049
:08012E0085906C97A60000000B
:08012F0080490007A600000052
:0801300080028C97A60000007C
:0801310080018C900000000029
:0801320082C48C97056257E6B8
:0801330080270007056257E672
:0801340081618897056257E61E
:0801350080160007056257E681
:0801360082C70007056257E9CA
:0801370080270007056250005B
:0801380083D08497056250009A
:08013900805A849000000000D0
:08013A00803E000000000000FF
:08013B0085DC6A9886000000D3
:08013C0082ED6A988670F00064
:08013D0081776A900070F00068
:08013E0080E06A90000000005F
:08013F008095000000000000A3
:0801400080038C900000000018
:0801410082C48C7589000000E6
:08014200802700058900000080
:0801430081618895890000002C
:0801440080160005890000008F
:0801450082C77E9589000000CD
:0801460080270005890000007C
:0801470083D07A9589000000C5
:08014800805A7A9000000000CB
:08014900803E000000000000F0
:08014A0085906C95890000000E
:08014B00804C000000000000E0
:08014C00859074900000000092
:08014D008049000000000000E1
:08014E0080038C90000000000A
:08014F0082C48C97095890004E
:08015000802700070958900008
:080151008161889709589000B4
:08015200801600070958900017
:0801530082C77E970958900055
:08015400802700070958900004
:0801550083D084870958900053
:08015600805A848000000000C3
:08015700803E000000000000E2
:0801580085907487086C85880E
:08015900804C000000000000D2
:08015A00859074800000000094
:08015B008049000000000000D3
:08015C0080038C70000000001C
:08015D0082C48C7707667587E8
:08015E00802700070766758782
:08015F0081618877076675874E
:08016000801600070766758791
:0801610082C77E7707667587EF
:0801620080270007076675877E
:0801630083D07A7707667587E7
:08016400805A7A7000000000CF
:08016500803E000000000000D4
:0801660085906C658600000025
:08016700804C000000000000C4
:080168008590746000000000A6
:080169008049000000000000C5
:08016A0080038C5845000000E1
:08016B0082ED8C9845705000F4
:08016C008001000845705000FD
:08016D00813D889845705000A7
:08016E0080398898450000006B
:08016F008001000845000000BA
:0801700082C76C58457E900027
:0801710080260008457E900085
:080172008001000845000000B7
:0801730083C974584900000023
:080174008062745000000000DD
:08017500803A000000000000C8
:0801760085DB7497096C900011
:080177008001000000000000FF
:0801780085D97490000000001D
:0801790080027498C584500057
:08017A0080010008C58450005B
:08017B0082ED6258C98454E5CD
:08017C0080016250008454E58B
:08017D00813D6258898454E5BC
:08017E0080390008898450005B
:08017F00800100000084500023
:0801800082ED6C57E984500088
:0801810080016C500084500065
:0801820083C96C57A9845000E9
:08018300803D6C57A90000004B
:08018400805E0007A9000000E5
:080185008001000000000000F1
:0801860085DB6C900000000015
:080187008001000000000000EF
:0801880085D97420000000007D
:0801890080027428C5845000B7
:08018A0080010008C58450004B
:08018B0082ED6258C6845000A9
:08018C00800162500084500064
:08018D00813D62588684500098
:08018E0080390008868450004E
:08018F00800100000084500013
:0801900082C76C57E6845000A1
:0801910080260007E6845000FF
:08019200800100000084500010
:080193009A0E74500084600014
:080194008062745000000000BD
:08019500000000000000000062
:08019600000000000000000061
:08019700000000000000000060
:0801980000000000000000005F
:08020000850D6876E7507000DF
:0802010080476876E700000069
:0802020084C96876E75470001E
:0802030080440000005470006B
:0802040080470000000000002B
:08020500850C7277C7567000EA
:0802060080477277C700000079
:0802070084C97277C75E700024
:0802080080440000005E70005C
:08020900804700000000000026
:08020A00850D6C77275A700086
:08020B0080476C77270000001A
:08020C0084C86C7727567000CE
:08020D0080440000005670005F
:08020E00804700000000000021
:08020F008A1C7277A74C7000F5
:08021000808C000000000000DA
:08021100850C6876E77675079D
:0802120080476876E776700072
:0802130084C96876E77675479F
:080214008044000000000547D2
:0802150080470000000000001A
:08021600850C7277C78475673F
:0802170080477277C784700074
:0802180084C97277C78475E701
:0802190080440000000005E72D
:08021A00804700000000000015
:08021B00850D6C77277A75A7A9
:08021C0080476C77277A70001F
:08021D0084C86C77277A75672D
:08021E008044000000000567A8
:08021F00804700000000000010
:080220008A1C7277A78074C7E5
:08022100808C000000000000C9
:08022200850C6876E77675078C
:0802230080476876E776700061
:0802240084C96876E77675478E
:080225008044000000000547C1
:08022600804700000000000009
:08022700850D7277C78475672D
:0802280080477277C784700063
:0802290084C87277C78475E7F1
:08022A0080440000000005E71C
:08022B00804700000000000004
:08022C00850D6C77277A75A798
:08022D0080476C77277A70000E
:08022E0084C86C77277A75671C
:08022F00804400000000056797
:080230008047000000000000FF
:080231008A1D7277A78074C7D3
:08023200808B000000000000B9
:08023300850C68B6EB76B50BF3
:08023400804768B6EB76B000CC
:08023500828568B6EB76B8ABD8
:08023600802568B6EB76B000EC
:08023700821F68B6EB76B8EBFC
:0802380080660000000008EBE5
:08023900802500000000000018
:08023A00850D84B7CB72B56B92
:08023B00804784B7CB72B000CC
:08023C00824084B7CB72B5EBE0
:08023D0080690007CB72B5EBEC
:08023E0081557CB00072B5EBA4
:08023F0080CA7CB80B72B5EB1C
:08024000804400080B0005EBEF
:08024100803300080B000000EF
:08024200801400000000000020
:08024300850D7AB6CB72B5AB54
:0802440080477AB6CB72B000CE
:0802450082417AB6CB72B56B61
:0802460080690006CB72B56B64
:08024700814184B6CB72B56B56
:0802480080140006CB72B56BB7
:0802490080C98AB6CB72B56BC7
:08024A0080458AB00000056B3D
:08024B0080338AB000000000BE
:08024C00801400000000000016
:08024D008A1C80B72B7AB4CBA8
:08024E00808B0000000000009D
:08024F00850C68B6EB76B50BD7
:08025000804768B6EB76B000B0
:08025100828568B6EB76B8EB7C
:08025200802568B6EB76B000D0
:08025300821F68B6EB76B8AB20
:0802540080660000000008AB09
:080255008025000000000000FC
:08025600850D84B7CB72B56B76
:08025700804784B7CB72B000B0
:08025800824084B7CB72B5EBC4
:08025900806A0007CB72B5EBCF
:08025A0081547CB00072B5EB89
:08025B0080CA7CB80B72B5EB00
:08025C00804400080B0005EBD3
:08025D00803400080B000000D2
:08025E00801300000000000005
:08025F00850D7AB6CB72B5AB38
:0802600080477AB6CB72B000B2
:0802610082417AB6CB72B56B45
:0802620080690006CB72B56B48
:0802630081418AB6CB72B56B34
:0802640080140006CB72B56B9B
:0802650080C984B6CB72B56BB1
:08026600804584B00000056B27
:08026700803384B000000000A8
:080268008014000000000000FA
:080269008A1C80B72B7AB4CB8C
:08026A00808B00000000000081
:08026B00850D68F6EF76F50F32
:08026C00804768F6EF76F00010
:08026D00828468F6EF76F8AF19
:08026E00802568F6EF76F00030
:08026F00821F68F6EF76F8EF3C
:0802700080660000000008EFA9
:080271008025000000000000E0
:08027200850D94F7CF84F56FB0
:08027300804794F7CF84F000EE
:08027400824194F7CF84F5EFFD
:0802750080690007CF84F5EF5A
:0802760081419CF7CF84F5EFF4
:0802770080140007CF84F5EFAD
:0802780080C998F7CF84F5EF6F
:08027900804498F0000005EF3D
:08027A00803498F00000000040
:08027B008013000000000000E8
:08027C00850D92F7AF5AF6CF91
:08027D00804792F7AF0006CFA5
:08027E00824192F7AF56F6CF62
:08027F0080690007AF56F6CFBD
:08028000814194F7AF56F6CF5F
:0802810080140007AF56F6CF10
:0802820080CA92F7AF56F6CFD7
:08028300804492F00056F000E7
:08028400803392F0000000003D
:080285008014000000000000DD
:080286008A1C8AF72F7AF80F99
:08028700808B00000000000064
:080288008A1C68F6EF76F80FFE
:08028900808B00000000000062
:08028A00850D84F7CF72F56FBA
:08028B00804784F7CF72F000F8
:08028C00824184F7CF72F5EF07
:08028D0080690007CF72F5EF54
:08028E0081557CF00072F5EFD0
:08028F0080C97CF80F72F5EF45
:08029000804500080F0005EF96
:08029100803300080F0000009B
:080292008014000000000000D0
:08029300850C7AF6CF72F5AF7D
:0802940080477AF6CF72F000FA
:0802950082417AF6CF72F56F89
:0802960080690006CF72F56FCC
:08029700814184F6CF72F56F7E
:0802980080140006CF72F56F1F
:0802990080CA8AF6CF72F56FEE
:08029A0080448AF00000056FAA
:08029B0080338AF0000000002E
:08029C008014000000000000C6
:08029D008A1C80F72F7AF4CFD0
:08029E00808B0000000000004D
:08029F0087FE8EF76F80F86FF7
:0802A000821E8EF76F80F86FDB
:0802A10080668EF000000000F1
:0802A2008025000000000000AF
:0802A300850D84F7CF8AF56F89
:0802A400804784F7CF8AF000C7
:0802A500824184F7CF8AF5EFD6
:0802A60080690007CF8AF5EF23
:0802A70081557CF0008AF5EF9F
:0802A80080C97CF80F8AF5EF14
:0802A900804500080F0005EF7D
:0802AA00803300080F00000082
:0802AB008014000000000000B7
:0802AC00850C7AF84F72F5AFE2
:0802AD0080477AF84F72F0005F
:0802AE0082417AF84F72F56FEE
:0802AF00806900084F72F56F31
:0802B000815584F00072F56F26
:0802B10080CA84F8AF72F56FFA
:0802B20080440008AF00056F55
:0802B30080330008AF000000D9
:0802B4008014000000000000AE
:0802B5008A1C80F72F7AF4CFB8
:0802B600808B00000000000035
:0802B70087FE8F377381387355
:0802B800821E8F377381387339
:0802B90080678F300000000097
:0802BA00802400000000000098
:0802BB0087959537D38538B310
:0802BC0080690007D38538B307
:0802BD0081557D30008538B346
:0802BE0080CA7D38138538B3B6
:0802BF00807700081300000025
:0802C0008014000000000000A2
:0802C100850C9338537B35B323
:0802C20080470008537B300067
:0802C30082859D38537B3573E1
:0802C40080250008537B35730F
:0802C50081558530007B357383
:0802C60080CA8538B37B357353
:0802C70080440008B300057338
:0802C80080330008B3000000C0
:0802C900801400000000000099
:0802CA008A1C8B37337B3813CB
:0802CB00808B00000000000020
:0802CC00879584A76A7CA46AEF
:0802CD00806900076A7CA46A45
:0802CE0081418EA76A7CA46A3D
:0802CF00801400076A7CA46A98
:0802D00080C98AA76A7CA46AB8
:0802D10080788AA00000000003
:0802D200801400000000000090
:0802D300850C88A80A76A50A33
:0802D400804700080A76A50A24
:0802D50082AA80A00076A50AB0
:0802D600821F80A7CA76A50A69
:0802D70080660007CA00000068
:0802D800802500000000000079
:0802D90087947AA68A72A42A18
:0802DA00806900068A72A42A63
:0802DB0081417CA68A72A42A6D
:0802DC00801400068A72A42AB6
:0802DD0080CA80A68A72A42ADF
:0802DE00807780A00000000001
:0802DF00801400000000000083
:0802E0008A1C76A64A6EA3EA0F
:0802E100808B0000000000000A
:0802E200806C46A00000000042
:0802E300803646A68A000000E7
:0802E400806F46A68A76A00097
:0802E5008B3746A68A76A84A71
:0802E600800346A00000084A55
:0802E700808A00000000000005
:0802E800854480A8EA76A88A8B
:0802E900823A80A8EA76A88A97
:0802EA00806780A00076A88A5D
:0802EB00821980A98A76A88A15
:0802EC00806500098A00000092
:0802ED00802400000000000065
:0802EE0084FE92A80A7AA8AA76
:0802EF00804600080A7AA8AA63
:0802F000827D94A80A7AA8AAF5
:0802F100802500080A7AA8AA82
:0802F200813D7CA80A7AA8AA4C
:0802F300801400080A7AA8AA91
:0802F40080C780A0007AA8AACF
:0802F500807680A000000000EB
:0802F60080140000000000006C
:0802F70089FE8EA76A7CA86A4B
:0802F8008089000000000000F5
:0802F900814E8058658E568588
:0802FA0083F600000000000083
:0802FB00814EA256C50000006F
:0802FC00815400000000000025
:0802FD00814EA6500000000034
:0802FE00815400000000000023
:0802FF00814E8A59459C56E529
:0803000083F50000000000007D
:08030100814E7650000000005F
:0803020081540000000000001E
:0803030080A6945000000000E8
:0803040080AB000000000000C6
:0803050080A6985000000000E2
:0803060080AB000000000000C4
:08030700814E8458A592572590
:0803080083F600000000000074
:08030900814E6E50000000005F
:08030A00815400000000000016
:08030B0080A59C5000000000D9
:08030C0080AB000000000000BE
:08030D0080A6A25000000000D0
:08030E0080AB000000000000BC
:08030F00814E8A5925985645DC
:08031000893A00000000000022
:08031100814E8058658E56856F
:0803120083F50000000000006B
:08031300814FA256C500000055
:0803140081530000000000000D
:08031500814EA650000000001B
:0803160081540000000000000A
:08031700814E8A59459C56E510
:0803180083F600000000000064
:08031900814E76500000000047
:08031A00815400000000000006
:08031B0080A5945000000000D1
:08031C0080AC000000000000AD
:08031D0080A5985000000000CB
:08031E0080AC000000000000AB
:08031F00814E8458A592572578
:0803200083F50000000000005D
:08032100814E6E500000000047
:080322008154000000000000FE
:0803230080A69C5000000000C0
:0803240080AB000000000000A6
:0803250080A6A25000000000B8
:0803260080AB000000000000A4
:08032700814E8A5925985645C4
:080328008937000000000645C2
:0803290080020000000000004A
:08032A0084FE6936F3773513F8
:08032B0080466936F3773000CB
:08032C00827E6936F37739F394
:08032D0080246936F3773000EB
:08032E0082186936F37739D318
:08032F0080650000000009D305
:08033000802500000000000020
:08033100877E9539D38538B3AE
:0803320080670000008538B36C
:08033300813E7D39538538B38A
:0803340080130000008538B3BE
:0803350080C88139938538B3BB
:0803360080768139930000007C
:0803370080130000000000002B
:0803380084FE7B39335B36D3F0
:0803390080467B39330006D336
:08033A00823A7B39335736D3B8
:08033B0080680000005736D372
:08033C00813D8F3A335736D39F
:08033D008014000A335736D387
:08033E0080C78B3A335736D318
:08033F0080448B3A3357300073
:0803400080218B3A330000001C
:0803410080118B300000000068
:0803420080140000000000001F
:0803430089FE8137337B34D3BE
:080344008089000000000000A8
:0803450084FE6936F3773513DD
:0803460080466936F3773000B0
:08034700827D6936F37738B3BB
:0803480080256936F3773000CF
:0803490082186936F37738F3DE
:08034A0080650000000008F3CB
:08034B00802500000000000005
:08034C00827D9537D3853573DE
:08034D0080240007D3853573FD
:08034E00825C9937D3853573F9
:08034F0080229937D3853000AC
:0803500080240007D385300072
:08035100827E9D37D38535F350
:0803520080240007D38535F378
:08035300813DA337D38535F38A
:0803540080140007D38535F386
:0803550080C79D37D38535F305
:0803560080449D30000005F316
:0803570080329D30000000001F
:08035800801400000000000009
:0803590084FD9338537B35B39A
:08035A0080470008537B3000CE
:08035B00823A8F38537B3573A1
:08035C0080438F30007B3573F4
:08035D0080250000007B3573D0
:08035E00813D9538537B357396
:08035F0080130008537B357385
:0803600080C89338537B35730C
:0803610080439338530005733B
:080362008022933853000000D3
:0803630080119330000000003E
:080364008013000000000000FE
:0803650089FE8B37337B38134E
:08036600808A00000000000085
:08036700827D9CE8EE50E6EEF9
:0803680080250008EE50E6EECE
:08036900825B94E8EE50E6EE21
:08036A00802294E8EE0006EE8B
:08036B0080240008EE0006EEFC
:08036C0082A28EE54E0006EEB0
:08036D0082198EE54E8AE6EECE
:08036E00804300054E8AE00007
:08036F0080220000008AE0007A
:080370008024000000000000E1
:08037100827E94E7CE84E56E64
:0803720080240007CE84E56E33
:08037300825C98E7CE84E56E80
:08037400802198E7CE84E0002F
:0803750080250007CE84E000A2
:08037600827D9CE7CE84E5EED8
:0803770080250007CE84E5EEAD
:0803780082187CEA2E84E5EEF8
:080379008043000A2E0005EE8E
:08037A008022000A2E000000A1
:08037B008025000000000000D5
:08037C0084FD7AE5AE6CE72E6A
:08037D0080467AE0006CE72ED7
:08037E0084BA7AE94E6CE72E07
:08037F00804400094E0000005B
:080380008046000000000000AF
:08038100804F7AE4CE00000079
:08038200802A7AE4CE8AE00033
:0803830089827AE4CE8AE98E3A
:0803840080037AE4CE000000C2
:08038500808900000000000067
:0803860084FE8EA76A50A6EA6E
:08038700804600076A0006EA47
:0803880084BA8AA76A54A6EAB0
:0803890080448AA00054A0008A
:08038A008046000000000000A5
:08038B0084FD84A7CA72A56A73
:08038C00804784A7CA72A0009B
:08038D00823A84A7CA72A5EAB6
:08038E0080670007CA72A5EAAE
:08038F0082197CA00072A5EAAE
:0803900080437CA0000005EA97
:0803910080227CA000000000A6
:080392008024000000000000BF
:0803930084FE80A84A7AA5AAA5
:08039400804600084A7AA0002F
:0803950084BA84A56A7AA00075
:08039600804384A56A00000009
:08039700804700000000000097
:0803980089FE8AA72A7AA80A4F
:08039900808900000000000053
:08039A0084FE8EA76A50A6EA5A
:08039B00804600076A0006EA33
:08039C0084BA94A76A54A6EA92
:08039D00804394A00054A0006D
:08039E00804700000000000090
:08039F0084FD98A7CA84A56A39
:0803A00080460007CA84A0009A
:0803A100827E94A7CA84A5EA3C
:0803A20080240007CA84A5EACB
:0803A30082188AA7CA84A5EAAA
:0803A40080448AA0000005EA74
:0803A50080218AA00000000085
:0803A6008025000000000000AA
:0803A70084FD84A7AA5AA6CA2E
:0803A800804784A7AA0006CAE1
:0803A90084BA84A7AA56A6CA73
:0803AA00804300000056A00092
:0803AB00804600000000000084
:0803AC0089FE8AA72A7AA80A3B
:0803AD00808A0000000000003E
:0803AE0084FD6876E77675070F
:0803AF0080466876E7767000D5
:0803B00084BB6876E77675470F
:0803B100804300000000054735
:0803B20080460000000000007D
:0803B30084FE7277C7847567B0
:0803B40080467277C7847000D7
:0803B50084BA7277C78475E772
:0803B60080430000000005E790
:0803B700804700000000000077
:0803B80084FD6C77277A75A71C
:0803B90080466C77277A700082
:0803BA0084BA6C77277A75679D
:0803BB0080440000000005670A
:0803BC00804600000000000073
:0803BD0089FE7277A78074C766
:0803BE0080890000000000002E
:0803BF0084FE6836E3503000B3
:0803C00080466836E3000000EE
:0803C10084BA6836E3543000F1
:0803C2008044000000543000EB
:0803C30080460000000000006C
:0803C40084FD7237C3563000BE
:0803C50080477237C3000000FD
:0803C60084BA7237C35E3000F7
:0803C70080430000005E3000DD
:0803C800804600000000000067
:0803C90084FE6C37235A30005A
:0803CA0080466C37230000009F
:0803CB0084BA6C3723563000A0
:0803CC008043000000563000E0
:0803CD00804700000000000061
:0803CE009E547237A34C30006D
:0803CF00000000000000000026
:0803D000000000000000000025
:0803D100000000000000000024
:0803D200000000000000000023
:0804000081866EC000000000BF
:08040100818672C000000000BA
:08040200818580C000000000AC
:08040300830C78C0000000002A
:08040400849080C0000000009C
:0804050081866EC000000000BA
:08040600818672C000000000B5
:08040700818580C000000000A7
:08040800879C78C00000000091
:0804090081866EC000000000B6
:08040A00818572C000000000B2
:08040B00818680C000000000A2
:08040C00830B78C00000000022
:08040D00849180C00000000092
:08040E0081866EC000000000B1
:08040F00818572C000000000AD
:08041000818680C0000000009D
:08041100879C78C00000000088
:0804120081866EC000000000AD
:08041300818572C000000000A9
:08041400818680C00000000099
:08041500830B78C00000000019
:08041600849180C00000000089
:0804170081866EC000000000A8
:08041800818572C000000000A4
:08041900818680C00000000094
:08041A00879C78C0000000007F
:08041B0081856EC000000000A5
:08041C00818672C0000000009F
:08041D00818680C00000000090
:08041E00830B78C00000000010
:08041F00849180C00000000080
:0804200081856EC000000000A0
:08042100818672C0000000009A
:08042200818580C0000000008C
:08042300879D78C00000000075
:0804240081856EC8AC5AC000CE
:08042500818672C8AC5AC000C8
:08042600818580C8AC5AC000BA
:08042700818678C8AC5AC000C0
:08042800818678C0005AC00073
:08042900818590C80C5AC00047
:08042A00830B8EC80C5AC000C0
:08042B00818686C6EC50C0007A
:08042C00818672C8AC50C000CB
:08042D00818580C8AC50C000BD
:08042E00861778C94C50C0008C
:08042F00818578C94C50C00022
:0804300081866EC8AC5AC000C1
:08043100818672C8AC5AC000BC
:08043200818580C8AC5AC000AE
:08043300818678C8AC5AC000B4
:08043400818578C0005AC00068
:08043500818698C80C5AC00032
:08043600830B94C80C5AC000AE
:0804370081868AC6EC5AC00060
:08043800818572C98C5AC000D5
:08043900818680C98C5AC000C5
:08043A00818690C78C5AC000B6
:08043B00849000078C5AC000F8
:08043C00818678C0005AC0005F
:08043D00818690C64C4CC00002
:08043E00818594C72C4CC0001D
:08043F00818680C98C4CC000CD
:08044000830B78C98C4CC0004D
:08044100818680C98C4CC000CB
:08044200818580C90C4CC0004B
:08044300818680C94C4CC00009
:08044400818664C8AC4CC000C5
:08044500818572C8AC4CC000B7
:08044600818680C8AC4CC000A7
:08044700849178C8AC4CC000A0
:08044800830B80C8AC4CC0001E
:08044900818564C9EC4CC00080
:08044A00818672C9EC4CC00070
:08044B00818698C80C4CC0002A
:08044C00830B78C90C4CC000C1
:08044D00818580C90C4CC00040
:08044E00830C80C9EC4CC000D6
:08044F00818594C64C4CC000ED
:08045000818672C8AC4CC000AB
:08045100818680C8AC4CC0009C
:08045200849078C8AC4CC00096
:08045300830C80C0004CC000C6
:08045400818564C8AC90C5ACC1
:0804550080C372C8AC90C5AC75
:0804560080C372C8EC0005AC84
:0804570081850008EC0005ACF2
:08045800818680C78C0005AC11
:0804590081868AC78C0005AC06
:08045A0080C290C78C0005ACC4
:08045B0080C38AC78C0005ACC8
:08045C0081868EC80C0005AC7E
:08045D0081858EC80C60C0000F
:08045E00818664C86C8EC5ACF8
:08045F0080C372C86C8EC5ACAD
:0804600080C372C8AC0005ACBA
:08046100818580C8AC0005ACE8
:08046200861778C94C0005ACB7
:08046300818578C94C60C000DE
:08046400818664C8AC90C5ACB0
:0804650080C372C8AC90C5AC65
:0804660080C372C98C0005ACD3
:08046700818580C98C0005AC01
:08046800830B8AC78C0005AC70
:0804690080C398C78C0005ACAC
:08046A0080C38AC78C0005ACB9
:08046B00818694C78C0005ACEA
:08046C00818598C78C68C0006F
:08046D00818694C8AC68C72C1D
:08046E00830B98C8AC68C72C91
:08046F00879C90C8AC68C72C03
:08047000818664C8AC90C5ACA4
:0804710080C372C8AC90C5AC59
:0804720080C272C8EC0005AC69
:0804730081860008EC0005ACD5
:08047400818680C78C0005ACF5
:0804750081858AC78C0005ACEB
:0804760080C390C78C0005ACA7
:0804770080C38AC78C0005ACAC
:0804780081858EC80C0005AC63
:0804790081868EC80C60C000F2
:08047A00818664C86C8EC5ACDC
:08047B0080C272C86C8EC5AC92
:08047C0080C372C8AC0005AC9E
:08047D00818680C8AC0005ACCB
:08047E00861678C94C0005AC9C
:08047F00818678C94C0005AC30
:08048000818564C8AC90C5AC95
:0804810080C372C8AC90C5AC49
:0804820080C372C98C0005ACB7
:0804830081868EC80C0005AC57
:08048400830B8AC78C0005AC54
:0804850080C38AC78C98C5AC46
:0804860080C38EC78C0005AC99
:08048700818594C78C0005ACCF
:08048800818698C78C68C00052
:0804890081858EC94C68C72C67
:08048A00818698C00068C72CB0
:08048B0081868EC00068C72CB9
:08048C00879C8AC90C78C000AE
:08048D00818564C90CA8C5AC0F
:08048E00818672C90CA8C5ACFF
:08048F00818580C90CA8C5ACF1
:08049000818678C90CA8C5ACF7
:08049100818678C0000005AC73
:08049200818578C8EC98C5AC27
:08049300818678C90C0005AC5C
:08049400818678C90C68C000E4
:08049500818572C98C50C00082
:08049600818680C98C50C00072
:0804970081858EC98C50C00064
:08049800818686C94C50C000AA
:08049900849178C94C50C000A9
:08049A00818578C94C68C0009F
:08049B00818686C3EC56C00007
:08049C0081868AC3EC56C00002
:08049D00818598C3EC56C000F4
:08049E00818690C3EC56C000FA
:08049F0081850003EC56C0004A
:0804A000818698C3EC56C000F0
:0804A100818694C3EC56CACC1D
:0804A200818594C64C000ACCD0
:0804A300818686C76C3CC54C44
:0804A40081858AC76C3CC54C40
:0804A500818698C76C3CC54C30
:0804A600879C90C76C3CC54C1B
:0804A700818690C64C50C5ACE3
:0804A800818598C72C50C5ACFA
:0804A9008186A6C80C50C5AC09
:0804AA0081869EC00050C5AC24
:0804AB00818500000050C5AC82
:0804AC00818680C8EC50C5AC4C
:0804AD00818578C80C50C5AC34
:0804AE00818678C80C60C000D3
:0804AF00818690C64C50C5ACDB
:0804B000818598C72C50C5ACF2
:0804B1008186A6C7CC50C5AC42
:0804B200861678C9EC50C5ACB8
:0804B30081867CC9EC60C000E9
:0804B40081869EC6EC56C60CC1
:0804B5008185A2C72C56C60C7C
:0804B6008186B0C80C56C60C8B
:0804B7008185A8C78C56C60C14
:0804B800818600078C56C60C7A
:0804B9008186B0C78C56C60C09
:0804BA008185ACC80C56C60C8C
:0804BB008186ACC80C64C0008E
:0804BC0081859EC6CC5AC64C96
:0804BD008186A2C72C5AC64C2F
:0804BE008186B0C80C5AC64C3F
:0804BF00879CA8C78C5AC64CAB
:0804C00081857CCB0C42C5AC28
:0804C10080C380CB0C42C5ACE6
:0804C20080C380CA8C42C5AC66
:0804C30081858ECA8C42C5AC94
:0804C4008249A6C86C42C5ACD8
:0804C50080C39EC86C42C5AC67
:0804C60081859EC8EC42C5AC23
:0804C700818698C8EC42C5AC27
:0804C800818698C8EC48C60CBF
:0804C90081857CCB0C3EC56C63
:0804CA0080C380CB0C3EC56C21
:0804CB0080C380CA8C3EC56CA1
:0804CC0081858ECA8C3EC56CCF
:0804CD00879CA6C86C3EC56CBB
:0804CE00818686CB0C54C64C5C
:0804CF0080C38ACB0C54C64C1B
:0804D00080C38ACACC54C64C5B
:0804D100818598CACC54C64C89
:0804D2008249A2C8AC54C64CDB
:0804D30082489CC8AC54C64CE1
:0804D400818694C8AC54C64CAB
:0804D500818594C8EC64C000AD
:0804D600818686CB0C56C60C92
:0804D70080C38ACB0C56C60C51
:0804D80080C38ACACC56C60C91
:0804D900818598CACC56C60CBF
:0804DA00830B8AC90C56C60C05
:0804DB0081868AC00056C60CA0
:0804DC00818690C00056C60C99
:0804DD0081858AC00056C60C9F
:0804DE00818686CB0C42C5ACFF
:0804DF0080C38ACB0C42C5ACBE
:0804E00080C28ACA8C42C5AC3F
:0804E100818698CA8C42C5AC6B
:0804E2008248A6C8AC42C5AC7B
:0804E30082499EC8AC42C5AC81
:0804E400818598C8AC42C5AC4B
:0804E500818698C8AC60C000DC
:0804E60081866EC98C86C42CCE
:0804E70080C272C98C86C42C8E
:0804E80080C372C90C8AC42C08
:0804E900818680C90C8AC42C35
:0804EA00861694C8EC78C42CBE
:0804EB00818694C8EC78C68CF0
:0804EC00818686C6ECB0C64C07
:0804ED0080C28AC72CB0C64C86
:0804EE0080C38AC72CACC64C88
:0804EF00818698C80CACC64CD4
:0804F0008248A2C78C8AC64CA9
:0804F10080C39CC78C8AC64C35
:0804F20081869CC80C8AC64CEF
:0804F300818594C80C8AC64CF7
:0804F400818694C80C8AC68CB5
:0804F500818586C6ECB0C48CC1
:0804F60080C38AC72CB0C48C3E
:0804F70080C38AC72CACC48C41
:0804F800818698C80CACC48C8D
:0804F900830B78CA2C8AC48C25
:0804FA00849180CA2C8AC48C95
:0804FB0081856EC8AC3EC56CA2
:0804FC00818672C8AC3EC56C9C
:0804FD00818680C8AC3EC56C8D
:0804FE00830B78C8AC3EC56C0D
:0804FF00818598C80C3EC56C14
:08050000830C94C80C3EC56C8D
:0805010081856EC8AC3AC52CDF
:08050200818672C8AC3AC52CD9
:08050300818580C8AC3AC52CCB
:08050400830C78C8AC3AC52C49
:08050500830B80C8AC3AC52C41
:08050600818580C86C3AC52C08
:0805070081866EC8AC3EC56C94
:08050800818672C8AC3EC56C8F
:08050900818580C8AC3EC56C81
:08050A00830C78C8AC3EC56CFF
:08050B00818598C80C3EC56C07
:08050C00830B94C80C3EC56C82
:08050D0081866EC8AC30C3EC1E
:08050E00818672C8AC30C3EC19
:08050F00818580C8AC30C3EC0B
:08051000830B78C8AC30C3EC8A
:08051100849180C8AC30C3ECFA
:080512000000000000000000E1
:080513000000000000000000E0
:080514000000000000000000DF
:080515000000000000000000DE
:08060000831678C00000000021
:08060100831580C8EC00000025
:08060200831686C00000000011
:08060300831580C8EC00000023
:08060400831678C0000000001D
:08060500831580C8EC00000021
:08060600831686C0000000000D
:08060700831580C8EC0000001F
:08060800831678C00000000019
:08060900831580C8EC0000001D
:08060A00831686C00000000009
:08060B00831580C8EC0000001B
:08060C00831678C00000000015
:08060D00831580C8EC00000019
:08060E00831686C00000000005
:08060F00831580C8EC00000017
:08061000831678C60C000000FF
:08061100831580C8EC78C000DD
:08061200831586C60C000000F0
:08061300831680C8EC78C000DA
:08061400831578C60C000000FC
:08061500831680C8EC76C000DA
:08061600831586C60C000000EC
:08061700831680C8EC76C000D8
:08061800831578C60C000000F8
:08061900831680C8EC78C000D4
:08061A00831586C60C000000E8
:08061B00831680C8EC78C000D2
:08061C00831578C60C000000F4
:08061D00831680C8EC76C000D2
:08061E00831586C60C000000E4
:08061F00831680C8EC76C000D0
:08062000818A8EC60C78C0002F
:08062100818B90C60C78C0002B
:08062200818B94C76C80C000BD
:08062300818B98C76C80C000B8
:08062400818A98C6EC00000079
:08062500818B94C6EC0000007B
:08062600818B94C76C80C000B9
:08062700818B8EC76C80C000BE
:08062800831590C60C78C00098
:08062900831590C76C80C0002E
:08062A00831686C6EC000000F7
:08062B0083158EC76C80C0002E
:08062C00818B8EC5AC72C00089
:08062D00818B98C5AC72C0007E
:08062E00818B94C78C80C00091
:08062F00818A98C78C80C0008D
:08063000818B98C72C0000002B
:08063100818B9EC72C00000024
:08063200818B9EC78C80C00083
:08063300818A98C78C80C00089
:08063400831698C5AC72C000EA
:08063500831594C78C80C000FE
:08063600831694C72C0000009C
:0806370083158EC78C80C00002
:08063800818B9AC52C6AC000F9
:08063900818B98C52C6AC000FA
:08063A00818A98C72C78C000EA
:08063B00818B90C72C78C000F0
:08063C00818B90C6AC000000A8
:08063D00818B8AC6AC000000AD
:08063E00831590C72C78C00061
:08063F00818B8EC56C6EC000BA
:08064000818B86C56C6EC000C1
:08064100818A86C76C7CC000B1
:08064200818B98C76C7CC0009D
:08064300818B98C6EC00000059
:08064400818B94C6EC0000005C
:08064500818A80C76C7CC000B3
:08064600818B82C76C7CC000AF
:08064700818B9AC52C6AC000EA
:08064800818A98C52C6AC000EC
:08064900818B98C72C78C000DA
:08064A00818B90C72C78C000E1
:08064B00818B90C6AC00000099
:08064C00818A8AC6AC0000009F
:08064D008316A2C72C78C0003F
:08064E0083159EC56C6EC0000F
:08064F00818B98C76C7CC00090
:08065000818B94C76C7CC00093
:08065100818B94C6EC0000004F
:08065200818A8EC6EC00000055
:08065300831686C76C7CC00011
:08065400831560C000000000E6
:0806550083168EC9EC78C00089
:08065600831586C98C60C00009
:0806570083168EC9EC78C00087
:08065800831560C000000000E2
:0806590083168EC9EC76C80C73
:08065A00831586C98C60C00005
:08065B0083168EC9EC76C80C71
:08065C00831560C000000000DE
:08065D0083168EC9EC78C00081
:08065E00831586C98C60C00001
:08065F0083158EC9EC78C00080
:08066000831660C000000000D9
:0806610083158EC9EC76C80C6C
:08066200831686C98C60C000FC
:080663009A368EC9EC76C80C32
:08066400818B00000000000082
:080665008031A8C60C00000062
:080666008038A8C60C6EC0002C
:0806670085C2A8C60C6EC80C88
:08066800862B9EC60C6EC80C27
:080669008A0690C60C6EC80C55
:08066A0080C500060C6EC80CEF
:08066B0080C698C60C6EC80C95
:08066C00803198C0006EC80C3B
:08066D00803798C00000080C62
:08066E00805D98C0000000004F
:08066F0080318AC5AC000000D7
:0806700080388AC5AC68C000A7
:0806710082AC8AC5AC68C78C9D
:0806720094D190C5AC68C78C5F
:08067300803200000068C78C12
:08067400803700000000078C34
:08067500805D000000000000A0
:0806760080319EC52C0000003C
:0806770080389EC52C60C00014
:0806780085C29EC52C60C72C51
:0806790091BB8AC52C60C72C5F
:08067A00803100000060C72C74
:08067B00803800000000072C8C
:08067C00805C0000000000009A
:08067D00803294C56C000000FE
:08067E00803794C56C64C000D4
:08067F0085C294C56C64C76CD0
:0806800091BC8EC56C64C76CCF
:08068100803100000064C76C29
:08068200803800000000076C45
:08068300805C00000000000093
:080684008032A8C60C00000042
:080685008037A8C60C6EC0000E
:0806860085C2A8C60C6EC80C69
:08068700862B9EC60C6EC80C08
:080688008B9190C60C6EC80CAA
:0806890080310000006EC80C76
:08068A00803800000000080C9C
:08068B00805C0000000000008B
:08068C00831660C000000000AD
:08068D0083156EC76C0000002C
:08068E00862B68C6EC00000099
:08068F00862B68C6EC86C00052
:08069000856568C6EC7CC00022
:0806910080C60000007CC000DF
:08069200831560C000000000A8
:0806930083166EC76C00000025
:08069400862B68C6EC00000093
:08069500862B68C6EC7CC00056
:08069600856568C6EC80C00018
:0806970080C600000080C000D5
:08069800831590C6AC000000C0
:0806990083169EC78C80C0008F
:08069A00831598C72C78C000FD
:08069B0083168AC72C78C00009
:08069C00862A86C72C78C000F5
:08069D00856680C72C78C000BF
:08069E0080C580C000000000CF
:08069F0083169EC6AC000000AA
:0806A0008315A2C78C80C00085
:0806A100862B90C72C78C000E5
:0806A200856698C72C78C000A2
:0806A30080C598C000000000B2
:0806A400856698C80C000000F7
:0806A50080C500080C000000F4
:0806A6008316A6C48C000000BD
:0806A70083159EC6EC76C0002D
:0806A800862B94C68C6EC00085
:0806A900862B98C68C6EC00080
:0806AA00856690C68C6EC0004D
:0806AB0080C590C000000000B2
:0806AC00818BA6C48C00000044
:0806AD0080C5A8C48C00000008
:0806AE0080C5ACC48C00000003
:0806AF00818BB0C6EC76C0009F
:0806B000818BB6C6EC76C00098
:0806B1008565B6C68C6EC00021
:0806B20080C600068C6EC0003A
:0806B30083157CC0000000006B
:0806B40083167CCACC00000093
:0806B500856580CACC0000003D
:0806B60080C680C000000000B6
:0806B700831590C6AC000000A1
:0806B80083169EC78C80C00070
:0806B900831598C72C78C000DE
:0806BA0083168AC72C78C000EA
:0806BB00856586C72C78C0009C
:0806BC0080C686C000000000AA
:0806BD00856586C80C000000F1
:0806BE0080C600080C000000DA
:0806BF0083159EC6AC0000008B
:0806C0008315A2C78C80C00065
:0806C100862B90C72C78C000C5
:0806C200856698C72C78C00082
:0806C30080C598C00000000092
:0806C400856698C80C000000D7
:0806C50080C500080C000000D4
:0806C600831678C86C90C48C07
:0806C700831578C86C90C6ECA5
:0806C800856678C86C90C68CB1
:0806C90080C500000000068C52
:0806CA00862B86C00000068C9F
:0806CB0085667CC00000068C6E
:0806CC0080C57CC000000000A5
:0806CD00831678C48C000000C4
:0806CE00831578C6EC76C0002C
:0806CF00856678C68C6EC00040
:0806D00080C500068C6EC0001D
:0806D100862B7CC00000000034
:0806D200862B80C0000000002F
:0806D300831578C48C000000BF
:0806D400831678C6EC76C00025
:0806D50090F678C68C6EC0009F
:0806D60080C500068C6EC00017
:0806D70080C6000000000000D5
:0806D800831548C0000000007A
:0806D90083166EC76C000000DF
:0806DA0091BB68C6EC000000B2
:0806DB0080C5000000000000D2
:0806DC00831648C00000000075
:0806DD0083156EC76C000000DC
:0806DE0091BC68C6EC000000AD
:0806DF0080C5000000000000CE
:0806E000831648C00000000071
:0806E10083156EC76C000000D8
:0806E20091BC68C6EC000000A9
:0806E30000000000000000000F
:0806E40000000000000000000E
:0806E50000000000000000000D
:0806E60000000000000000000C
:00000001FF
